:020000040800F2
:10000000B0080020790200089F2A0008532A00083F
:100010009D2A0008BF2700083F34000800000000A8
:10002000000000000000000000000000272E000873
:10003000C127000800000000F52C0008392F000837
:10004000930200089302000893020008930200083C
:10005000930200089302000893020008930200082C
:10006000930200089302000893020008930200081C
:10007000930200089302000893020008930200080C
:1000800093020008930200089302000893020008FC
:1000900093020008930200089302000893020008EC
:1000A00093020008930200089302000893020008DC
:1000B00093020008930200089D2F00089302000895
:1000C00093020008930200089302000893020008BC
:1000D00093020008453200089302000893020008CA
:1000E000930200089302000893020008930200089C
:1000F000930200089302000893020008930200088C
:10010000930200089302000893020008930200087B
:10011000930200089302000893020008930200086B
:10012000930200089302000893020008930200085B
:1001300000F002F800F090F80AA090E8000C824469
:100140008344AAF10107DA4501D100F085F8AFF246
:10015000090EBAE80F0013F0010F18BFFB1A43F0A5
:10016000010318474044000060440000103A24BFD7
:1001700078C878C1FAD8520724BF30C830C144BF0C
:1001800004680C607047000000230024002500264E
:10019000103A28BF78C1FBD8520728BF30C148BFEA
:1001A0000B6070476E2900F01D82702900F05F839C
:1001B000662904F00A81652904F00781672904F0A3
:1001C00004816129AFF3008003681B0A28BF41F056
:1001D0008001692900F0CA81642900F0C78175296E
:1001E00000F0C4816F2900F0ED82782900F02B83A4
:1001F000E92900F08782E42900F08482F52900F0E3
:100200008182EF2900F0EA82F82900F02A8303684E
:10021000DB0928BF41F08001632901F05381732974
:1002200001F05881E32901F06381F32901F068812D
:10023000002070471FB500F07FFE04000020002161
:1002400003F07AFB401C60600020002103F05EFB9D
:10025000E0601FBD10B510BD01F0A2FB1146FFF715
:10026000E9FF03F031FA01F03BFE03B4FFF7F2FFC0
:1002700003BC01F08FFE0000094880470948004791
:10028000FEE7FEE7FEE7FEE7FEE7FEE7FEE7FEE746
:10029000FEE7FEE704480549054A064B70470000A3
:1002A0003D2F000831010008B0020020B0080020F6
:1002B000B0040020B00400201CB50C46064B7B4463
:1002C00069460090204600F0A6F9044600206946E1
:1002D00000F0B4F920461CBD7B0300000FB400B54C
:1002E0008DB010A9099000910B904FF0FF300A904B
:1002F00000200C90064878440690064878446A46E8
:1003000007900F9909A800F0E7FD0DB05DF814FB08
:10031000FF0B0000170C00002DE9FF5F1D464FF09A
:10032000FF3B91464FF000085F46D5E90146A969B9
:1003300001987F1C8847296A824688470028F6D1A1
:10034000BAF1FF3F0CD0002E24F4C06419DD600622
:1003500014D5BAF12B0F09D0BAF12D0F0ED103E04D
:10036000584604B0BDE8F09F44F48064A969019840
:100370007F1C8847761E8246002E02DDBAF1300FC0
:1003800003D0B9F1000F26D032E0A969761E01989A
:100390007F1C44F400748847002E824605DDBAF1C4
:1003A000780F06D0BAF1580F03D0B9F1000F10D072
:1003B0001EE0B9F1000F02D0B9F1100F18D1A969F0
:1003C000761E01987F1C24F4007488478246102012
:1003D00002E0082000E00A20814609E0A96908FB44
:1003E0000908761E01987F1C44F4007488478246F1
:1003F000002E05DD4946504600F008FB0028EDDAE6
:10040000E96901988847A00502D46FF00100A8E7C8
:10041000E00725D1600613D5600502D5C8F10000BC
:1004200000E0404629680A1D2A600968220501D5B6
:10043000087015E0220701D5088011E008600FE080
:100440002868011D29600068210502D580F8008018
:1004500006E0210702D5A0F8008001E0C0F8008086
:1004600038467EE710B5431C02E010F8011B71B15D
:100470008107FAD14FF0013202C88C1A8C4314EA7A
:10048000C211F9D0C01A0A0603D0C01E10BDC01A8E
:1004900010BD0A0401D0801E10BD0902FCD0401E10
:1004A00010BD70477047704770B504468569006895
:1004B000C10601D5302600E02026C00707D070BD58
:1004C000D4E9012130469047206A401C20626D1E0D
:1004D000F6D570BD70B5044685690078C00707D1B0
:1004E00070BDD4E9012120209047206A401C206281
:1004F0006D1EF6D570BD09684A0501D540B270473A
:10050000C905FCD500B2704709684A0501D5C0B2DB
:100510007047C905FCD580B2704770B50C460546DA
:10052000012A05D02878800600D5EA69002302E078
:10053000012305E05B1C934202D2E05C0028F9D164
:10054000A869E618C01AA861286A184428622846D3
:10055000FFF7AAFF04E0D5E9012114F8010B904749
:10056000B442F8D32846FFF7B5FF70BD2DE9F0413E
:100570000646002410687529314616A510D0FFF7ED
:10058000BAFF002802DA404213A507E031688A0763
:1005900001D512A502E0490704D511A5012401E007
:1005A000FFF7B2FF00210A2206F1240709E0B0FBA1
:1005B000F2FCB0FBF2F302FB1C003030785418461A
:1005C000491C0028F3D123462A463046BDE8F041B5
:1005D00000F008BD000000002D0000002B0000000E
:1005E0002000000011680268006A530501D50870F8
:1005F0000AE0D30501D5088006E0130603D5C2172B
:10060000C1E9000200E008600120704701694A1C4E
:1006100002610878704700B58FB0CDE90131002143
:10062000059105497944CDE903101146684600F06B
:1006300029F90FB000BD0000E5FFFFFF0A6802F8CE
:10064000010B0A60704700002DE9FF5F15468A46DE
:100650000446DFF8AC80F8440027D8E900103E4695
:10066000CDE9001010E03AF816106A4602A801F031
:1006700073F9411C07D02178890603D5E26939183E
:1006800091420DD80744761C2078800602D5E06997
:10069000B84205DDAE42E6DB3AF816000028E2D1AA
:1006A000A069C01BA0612046FFF7FEFED8E900103C
:1006B000CDE90010002017E03AF818106A4602A8A9
:1006C00001F04AF9B0F1FF3F81460BD000250DF152
:1006D000080B05E0D4E901211BF8050090476D1CCB
:1006E0004D45F7D308F10100B0428046E4DB206AB3
:1006F000384420622046FFF7EDFEBDE8FF9F000072
:10070000723E00002DE9F0418046D21D22F0070222
:100710000025D2E90002F52915A614D0011E72F1B8
:10072000000106DA0023D0EB030063EB020211A6FE
:1007300008E0D8F800108B0701D50FA602E04907A2
:1007400001D50EA601251146002408F1240704E076
:1007500000F0FAFB30323A55641C50EA0102F7D13E
:100760002B46324621464046BDE8F04100F03ABCF7
:10077000000000002D0000002B0000002000000001
:1007800030B4002100F1240408E002F00705D2088B
:10079000303542EA4372DB086554491C52EA0305CE
:1007A000F3D10468002310A2250708D504F0200423
:1007B0000C4304D0C46901230CA2641EC46130BC84
:1007C00000F010BC10B5044621461068FFF79CFEEF
:1007D00002462046BDE810400023D1E7D21D22F09A
:1007E0000701D1E90023CBE7000000003000000042
:1007F000F0B40D460188090502D5214C7C4402E085
:100800001F4C7C440E34002100F1240608E002F065
:100810000F071209E75D42EA03721B097754491C6E
:1008200052EA0307F3D102780023120704D5702D92
:1008300006D009B1022311342246F0BC00F0D2BB2D
:1008400001231034F8E770B504460D4621461068C0
:10085000FFF75AFE024629462046BDE870400023B5
:10086000C6E7D21D22F00703D3E90023C0E70368DF
:10087000126843F0200303600823C3610023B7E735
:10088000D43C00002DE9F05F894604464FF0000A91
:10089000DFF874B1FB44C0F820A02046E168884727
:1008A000002874D0252806D0D4E901219047206A79
:1008B000401C2062F1E700265F462046E168884739
:1008C0002028054607DB312D05D2781910F8200CB9
:1008D00008B10643F1E7B00701D526F00406C4F8D5
:1008E0001CA00027C4F818A02A2D09D0284602F021
:1008F0007EFE38B304EB8708303DC8F8185019E085
:1009000059F8041B204604EB87029161E16888478F
:10091000012F054618D1E069002820DA26F02006CC
:100920001DE0D8F8180000EB800005EB40003038DF
:10093000C8F818002046E1688847054602F057FECF
:100940000028EED1012F0AD02E2D08D12046E168D3
:1009500088477F1C0546022F46F02006C4DBA069AD
:10096000002803DA404246F00106A061F00701D0FA
:1009700026F010066C2D0BD0682D09D04C2D39D0E7
:100980006A2D35D0742D35D07A2D33D016E038E06D
:10099000E1682F4620468847B842054609D16C2FAA
:1009A00026D04FF48060E16806432046884705461C
:1009B00004E06C2F1AD04FF4807006430DB3A5F1FC
:1009C0004100192802D8203546F400664A462946D7
:1009D000204626604E46FFF7E5FB80B101280BD08C
:1009E000F61D26F0070000F1080956E74020E4E76D
:1009F0008020D8E70020D6E706F104094DE7284615
:100A000052E7206ABDE8F09F643C00003A2800D21B
:100A1000303820F02002412A01D3A2F13700884269
:100A200001D34FF0FF3070472DE9FF4F064689B0E4
:100A30000878FF2806D0491C2D2805D000244FF047
:100A4000000908E000200CE00124F8E709EB890325
:100A5000491C00EB43090878FF28F7D114B1C9F10C
:100A600000008146107800252C46AA4629462D28EC
:100A700001D02B2804D1521C2D2813D000208246EF
:100A80008B461078FF280FD04FF0000C0A21521C23
:100A9000A5FB017804FB018105FB0C11C5194BEB8B
:100AA0000104EEE70120EAE7002108464FF00000CC
:100AB000BAF1000F02D000EB80004008C0F381586B
:100AC000B8F1010F01DD4FF0FF380C9809EB00077A
:100AD00055EA040009D04FF0020917F5FA7F0BDA46
:100AE0004FEACA70C6E900B012E04FEACA70C6E920
:100AF00000B00DB0BDE8F08FB7F5FA7F0DDDF0481E
:100B00007844D0E90010C6E9001040EACA7070606D
:100B100000F016FAC0F80090EBE7391E02DAC8F1CF
:100B2000000200E0424600DA794206A800F0A6FE84
:100B300006AB93E8070003AB83E8070044F23E00EE
:100B40005BEA04010090584604D144F21E012C4691
:100B50005D460091210C0904014306D1009924044B
:100B600044EA15442D041039009104F07F410143FB
:100B700006D10099240244EA15642D020839009137
:100B800004F07041014306D10099240144EA157430
:100B90002D01091F009104F04041014306D1009945
:100BA000A40044EA9574AD00891E009104F0004150
:100BB000084304D100986D196441401E00904246DC
:100BC0006846002FCDE9014503A902DD01F0C1FC13
:100BD00001E001F096FCBAF1000F04460D4601D089
:100BE00084F0004440F2FF7724F00040284303D013
:100BF000C4F30A50B84212D100F0A2F9C0F8009034
:100C0000C4F30A50B8420AD1AE487844D0E9001083
:100C1000C6E9001004F000410843706069E7C6E9C6
:100C2000005466E72DE9FF4F1F464FF0000A4FF0D2
:100C3000FF38454691B0D7E90146CDF83CA000F019
:100C40007BF9C0680168405C1090B96912986D1C0E
:100C50008847396A814688470028F6D1B9F1FF3FB5
:100C60000AD0002E24F4D06411DDB9F12B0F08D086
:100C7000B9F12D0F0BD102E0404615B03AE744F42C
:100C80008064B96912986D1C8847761E814660059C
:100C900004A901D52D2000E02B20002E01F1010B2D
:100CA0000DF130088DF810003FDDB9F1690F08D063
:100CB000B9F1490F05D0B9F16E0F02D0B9F14E0F5D
:100CC0001CD13B4601A8009580E85002DDE91212D4
:100CD0006FF0020003F0DFFBC11CCED10EE0B9695A
:100CE00012986D1C884781461398761E44F4007450
:100CF00005600F98401C002E0F9016DDB9F1300FE3
:100D0000EDD0B9F1780F02D0B9F1580F0DD10F988D
:100D100001280AD13B46CDE90054DDE91212001F3B
:100D2000029603F0B6FBC11CA7D1109989453ED1AC
:100D300044F0800406E01399681CAAF1010A44F407
:100D400000740860B9696D1C1298761E88473028B7
:100D50008146F0D02BE01099894505D1200603D4B7
:100D6000761E44F0800418E0484602F040FC08B3C8
:100D7000761E0DF123018B4544F4007408D2A9F1CD
:100D800030000BF8010B200607D5AAF1010003E0A3
:100D9000200602D40AF101008246A00502D513996B
:100DA000681C0860B96912986D1C88478146002E3E
:100DB000D1DC53E0002E51DDB9F1650F02D0B9F15D
:100DC000450F4BD1A00549D5B9696D1C1298761E07
:100DD00024F440748847002E81460CDD2B2804D073
:100DE000B9F12D0F07D144F48074B96912986D1CC4
:100DF0008847761E8146E00501D52D2100E02B2194
:100E000008F8011BCDF8008021E0761E0DF13901B4
:100E1000884544F400740CD2A9F1300010F0FF00B2
:100E200088F8000002D10099884509D908F1010825
:100E300006E0E00501D5244801E042F20F70824649
:100E4000B96912986D1C8847814613980560002E79
:100E500004DD484602F0CBFB0028D6D1F969129890
:100E60008847FF2053468BF8000088F800000020D8
:100E70000A900B9004AA0CA90AA8FFF7D5FDA005BB
:100E800002D46FF00100F8E614F0240F0AD0E00756
:100E900014D13868DDE90A12031D3B600068C0E91F
:100EA00000120BE00AA9684602F04AFBE00705D1F0
:100EB0003868009A011D3960006802602846DCE647
:100EC000C03A0000B6390000F1D8FFFF02681144B3
:100ED0001378016018467047D16005497944516123
:100EE00004497944116200211161114600F00CBBE4
:100EF000EDFFFFFFED000000426842B1016811F80C
:100F0000013B23B1521EC0E900121846704701216F
:100F1000C160881E704742685AB1C368016843B90E
:100F200083688B4205D0491E521CC0E90012002084
:100F300070474FF0FF307047004870477002002044
:100F4000004870475002002030B5B0F10A024FEA65
:100F5000900E71F100034EEA817EB0EB0E0061EB62
:100F600091014FEA101E4EEA017E10EB0E0041EB9C
:100F700011114FEA102E4EEA016E10EB0E0041EBFC
:100F800011214FEA104E4EEA014E10EB0E0041EBDC
:100F90001141401841F100014FEAD00040EA417090
:100FA0004FEAD10110EB80054FEA810444EA9074C6
:100FB00044EB01046D1944EB0404521BA3414FF0B0
:100FC000000348BF0A3200D530BD401C41F100018A
:100FD00030BD10B5044600F009FD0068005D00F06A
:100FE000010010BD2DE9F0470D4699469246044692
:100FF00000F124080168880604D5E06921F0100199
:10100000216000E00120A84201DD471B00E000272D
:10101000A1697A1902EB0900081AA0612078C006BC
:1010200002D42046FFF740FA002608E0D4E9012167
:101030001AF806009047206A401C761C20624E4534
:10104000F4DB2078C0060AD52046FFF72DFA06E02B
:10105000D4E9012130209047206A401C2062381ECC
:10106000A7F10107F4DC07E0D4E9012118F8050035
:101070009047206A401C2062281EA5F10105F3DC80
:101080002046FFF727FA2078000602D50220BDE8A7
:10109000F0870120FBE770472DE9FF4F0C461E4605
:1010A0004FF0FF378BB0D2E90001DDF860800A9085
:1010B0008A46C1F30A5505B93D46002108464FF05E
:1010C0000000BAF1000F00F4400005DA00EB8000E8
:1010D0004FF4400101EA50004FEA9059B9F1010F75
:1010E00000DDB9460A9850EA4A000ED044F6105086
:1010F000A5F2FF3545432F14B8F1000F1ED07542FD
:10110000291E1EDDC9F100021CE0B8F1010F4FF0ED
:10111000000001D0302103E0F24305E02154401CDF
:10112000B042FBDB30460022002121540B99C1F86C
:101130000880C1E900200FB0BDE8F08FBD1B6D1C19
:10114000DEE74A4600DA694206A800F097FB06ABE4
:1011500093E8070003AB83E8070050460A9900F0C4
:1011600020FF8DE80700A0F500501F38009003987D
:10117000002D09DD42F21F014A46084403A90390ED
:10118000684601F0AAF908E0A0F500504A461F3869
:1011900003A90390684601F0C8F98DE80700000430
:1011A000000C03D04FF0FF30410800E01046B8F1CA
:1011B000000F03D00022009215461EE0751E05D4D4
:1011C000FFF7C2FE303262556D1EF9D5B3460122DB
:1011D000084302D000227F1C04E02078302801D18F
:1011E00000227F1E002A099786D01DE0112D07DA04
:1011F000FFF7AAFE303262556D1C50EA0102F5D1AC
:10120000084302D00098C8B10EE00021681E05E036
:10121000235C625C63542254401E491C8142F7DB0C
:10122000AB46A81B401E0990002004F80B000B9849
:10123000099AC0F80880C0E9002B7CE711264FF01E
:10124000000859E72DE9F04F88460446D21D22F0E8
:10125000070191B0D1E90001CDE90A0102F04CF992
:1012600002460B98C00F01D02D2007E020688107AF
:1012700001D52B2002E0202101EAC000032A0990B9
:1012800001D0072A05DB03464146204600F0C2FB99
:101290000BE12078800601D5E06900E00620B8F176
:1012A000650F814606D0B8F1660F18D0B8F1670F08
:1012B00070D131E00020B9F1110F009001DB112352
:1012C00001E009F101030AAA01A90CA8FFF7E4FE55
:1012D000DDE90C70002609F10105834647E0012095
:1012E0004B4600904FF000470AAA01A90CA8FFF74F
:1012F000D3FEDDE90DB00C995D46002610B909F169
:1013000001000D18B9EB050003D4C0F1FF3609F157
:101310000105A5EB09002BE0B9F1010F01DA4FF04F
:1013200001090020B9F1110F0090484601DD112399
:1013300000E003460AAA01A90CA8FFF7ADFEDDE90B
:101340000C704D4600268346207800070AD4AB4532
:1013500000DA5D4601A8012D04DD411911F8011CD8
:10136000302907D04F4502DA17F1040F04DA0120C3
:1013700082460FE06D1EEEE7002F02DCED1B3E44BF
:1013800003E0781CA84200DD7D1CB81B00F1010AB7
:101390004FF000472078000703D4AA4501DB4FF047
:1013A000FF3A0021B7F1004F0DF143088DF84310CB
:1013B00024D002202B23002F01DA7F422D230A2183
:1013C000021EA0F1010000DC5FB197FBF1FC97FB6E
:1013D000F1F201FB1C7C17460CF1300C08F801CD32
:1013E000EEE7A8F1010003702188090501D5452128
:1013F00000E06521A0F1010800F8011C09980FA97F
:10140000A1EB0807FF1D00B10120411901EBEA70B3
:10141000A1693844081A401EA0612078C00602D491
:101420002046FFF741F8099828B1D4E901219047F7
:10143000206A401C20622078C00622D52046FFF793
:1014400033F81EE0002E04DBB34502DD01A8805D09
:1014500000E03020D4E901219047206A401C20623E
:10146000761CAAF101005FEA000A0AD1FFF764FDC9
:10147000C0680168405CD4E901219047206A401CA3
:101480002062281EA5F10105DCDC07E0D4E901217A
:1014900018F8010B9047206A401C2062381EA7F103
:1014A0000107F3DC2046FFF715F8032011B043E6EF
:1014B00010B5436913B1AFF3008001E0FFF72DF8D9
:1014C000012010BD127800F124010A7000224A7038
:1014D0000122EDE711684FF0FF32E9E710B54369EB
:1014E00013B1AFF3008001E0FFF7AEF8012010BDAB
:1014F000128800F1240182840022C2840122EDE7D7
:1015000011684FF0FF32E9E72DE9F34F4FF0000A81
:101510000C4656468DB001200C9001F10C000B904A
:1015200062690B980121904705002DD0252D2CD004
:10153000216A8847C0B162690B9801219047216AEE
:1015400088470028F7D16269411E0B98904700E058
:10155000761CA1690D988847216A88470028F7D131
:10156000E1690D988847DBE7A1690D988847A84293
:10157000074601D1761CD3E7E1690D9888477F1CA7
:1015800002D1BAF1000F6FD06BE162690B980027AE
:101590003D46394690472A2804D162690B980121BB
:1015A00090470125DFF8D08262690B9801219047AE
:1015B000A0F130010A290AD24745E5DC07EB870193
:1015C00000EB4107303FDFD445F01005ECE7E906BA
:1015D00001D46FF000476C280AD04C2814D068283A
:1015E00015D06A280DD074281CD07A281AD01DE096
:1015F00062690B98012190476C2802D045F00405E0
:1016000014E045F002050DE045F020050AE06269AE
:101610000B9801219047682802D045F0080505E0A5
:1016200045F4006562690B9801219047C4E90157B0
:1016300065283DD019DC58287AD00CDC452837D0F5
:1016400004DC252826D041289ED131E046282FD021
:10165000472899D12CE05B2877D0612828D06328CF
:101660007CD0642823D15AE0F6E06F2848D008DC0B
:1016700066281DD067281BD0692821D06E2816D176
:1016800027E0702845D0732868D0752847D078287F
:101690000DD14DE0A1690D988847252805463FF4F6
:1016A00069AFE1690D9888476D1C3FF46AAFD8E0D7
:1016B0000D9923466A466FF0010002F0E8FEC5E08E
:1016C00045F0400023464FF000026060A80736D482
:1016D0003EE0E8077FF447AF2068011D2160006805
:1016E000290501D506701BE7290701D5068017E7F4
:1016F000A90703D5F117C0E9006111E706600FE7FC
:1017000045F0400023464FF008026060A80716D459
:101710001EE040F60E0125EA0100606016E045F08B
:10172000400023464FF00A026060A80707D40FE08C
:1017300045F040006060A80708D5234610220D99A7
:101740006FF00100AFF3008080E007E01022234635
:101750000D996FF00100FEF7DFFD77E04FF0000913
:1017600063284F46C8464B46CB4602D05B2806D07E
:1017700038E0E80601D40120A060012732E0626968
:10178000D4F80CB00B98012190475E2807D14FF098
:10179000010949466269D4F80CB00B989047216959
:1017A00039B900210A4603AB43F82120491C082916
:1017B000FADBD8B3216949B308F1010862690B98D3
:1017C000012190475D28F4D1B9F1000F09D0002024
:1017D00003A951F82020D24341F82020401C0828BA
:1017E000F7DB03AB2069002820794FEA40701ED058
:1017F0005B462246CDF80080CDE901970D9900287F
:101800006FF0010020DAAFF300801FE0C11703AAD8
:1018100000EBD1614B1121F01F0102EB8302411A51
:1018200013680120884003431360C7E719E00D994E
:10183000224600286FF00100009702DAAFF3008023
:1018400004E0AFF3008001E0AFF3008000280ADA83
:10185000401C06D10C9820B14FF0FF300FB0BDE80E
:10186000F08F5046FAE7E90701D10AF1010A064470
:1018700000200C9054E60000CCCCCC0C2DE9F047B5
:10188000814616468AB0334878440DC88DE80D006D
:1018900030487844801C03AC0DC884E80D0041F644
:1018A0009B300844372190FBF1F290FBF1F5A5F154
:1018B000800501FB12041B3C02D56442012000E0BC
:1018C0000020DFF890A080460027FA44AAF1BE0A63
:1018D0000DE0E00709D03246684607EB47010AEB06
:1018E000810100F022FE8DE8070064107F1C002CAF
:1018F000EFD1184F7F44AC3F18E0E80714D007EB56
:1019000004100DF1180A90E80E008AE80E00C06875
:10191000F04201D198190890324606A903A800F0B8
:1019200004FE03AB83E807006D10641C002DE4D1B6
:1019300032466946B8F1000F03A802D000F0CDFD91
:1019400001E000F0F2FDC9E90001C9F808200AB081
:10195000BDE8F087002D000070B516460C46054620
:1019600000F044F8036893F80101012806D0FF2C29
:101970000FD8185D68B101202C7070BDD3F8070135
:101980003246214603F2071303442846BDE870405F
:1019900018474FF0FF3070BD0048704750020020DC
:1019A0007546FFF7F9FFAE4605006946534620F03D
:1019B0000700854618B020B5FEF76CFCBDE8204056
:1019C0004FF000064FF000074FF000084FF0000BFB
:1019D00021F00701AC46ACE8C009ACE8C009ACE8AE
:1019E000C009ACE8C0098D467047000010B5FFF78C
:1019F000A3FA001D10BD00BF411F000010B5FFF786
:101A00009FFA006810BD10B50446FFF799FA04600C
:101A100010BD00002DE9F0411F4604460326016871
:101A2000072A01F4006004DB08B116A505E016A53D
:101A300003E008B115A500E015A521F01000206015
:101A4000A069C01EA0610FB1401EA0612046FEF734
:101A50002BFD4FB1D4E9012138469047206A401C44
:101A60002062C01C206206E0206AFAE7D4E9012166
:101A700015F8010B9047761EF8D22046FEF72AFD96
:101A8000BDE8F0814E414E006E616E00494E460049
:101A9000696E66002DE9FF4F1F464FF03C0987B085
:101AA0004FF00042DDE9141001F10108DDF858A003
:101AB00002EA405003900020049083460546044605
:101AC0000590B969461E08988847AAF1010A029054
:101AD000BAF1000F37DD02982E2815D01021FEF73D
:101AE00095FF00282ADB4FF0010B0499014316D023
:101AF000B9F1000F0BDB4A46C11700F037FA054376
:101B00000C43A9F1040905E00120059007E008B1A4
:101B100045F0010501200490059800B9361DB9690A
:101B2000089808F101088847BBF1000FAAF1010AE3
:101B30000290CDD00999C1F80080C9E702987028B9
:101B400008D0502806D0F96908988847BBF1000FE3
:101B500014D04FE0002002900120BBF1000F049050
:101B600009D0B969089808F101088847AAF1010964
:101B7000B9F1000F07DCF969089888476FF0010098
:101B80000BB0BDE8F08F2B2804D02D280CD14FF0DE
:101B9000FF300490B969089808F101088847A9F155
:101BA0000109B9F1000FE6DD411CE4D00A21FEF77E
:101BB0002DFF0028DFDB029908F1010801EB81010C
:101BC00000EB41000290B969089888470A21FEF7A6
:101BD0001DFF099AA9F10109B9F1000FC2F80080AF
:101BE00001DD0028E7DAF969089888470499029826
:101BF00000FB016655EA040004D004F040410900EE
:101C000002D006E0039898E0A40044EA9574AD0081
:101C1000B61E04F00041080002D16D196441761E21
:101C2000159810F0240F03D04FF00B095C4803E027
:101C30004FF028096FF07D008246564507DAAAEB7F
:101C400006018944B9F1410F01DD4FF0410901203E
:101C50000021A9F1010200F089F9024628400B4653
:101C60002140084301D0012100E00021501E0291D3
:101C700043F1FF3128402140084301D0012000E01A
:101C800000200299834651EA0B014FD000210846FB
:101C90004FF00000039900F4400039B100EB8000E0
:101CA0004FF4400100EBD07001EA6000801501287C
:101CB00002DD4FF0FF3000E013D0401C36D0029818
:101CC00060B3BBF1000F0CD14A460120002100F0A7
:101CD0004DF928402140084301D0012000E00020B8
:101CE000E0B101204A46002100F040F903464019C6
:101CF0000A4661412D1A8C4111D3B9F1400F09DD1B
:101D0000159810F0240F02D0AAF1340603E0AAF1CE
:101D1000170600E0761C00254FF0004406E05B1E2D
:101D200042F1FF3220EA030521EA0204CAF1010070
:101D3000B04206DA1B490398084301900020009046
:101D40000EE0039AC4F3D321E80A0A43164940EA95
:101D500044500A433146CDE90002684601F03CFC9C
:101D6000159810F0240F0BD01598C00715D13868BE
:101D7000DDE90012031D3B600068C0E900120CE0C1
:101D800002A8694601F0DCFB1598C00705D1386848
:101D9000029A011D3960006802604046F0E60000CA
:101DA00002FCFFFF0000F07F0000F03F2DE9FF4F35
:101DB00092461D4685B04FF00041DDE9124BDDE94A
:101DC00014727F1E01EA4B50414940F0FF4940EA3E
:101DD0000108002122F020004928049102D04E2859
:101DE00028D04CE03BA0012607C88DE80700A96970
:101DF0000698641C88477F1E014606D41DF806001D
:101E000018B121F0200181420BD0E969069888477A
:101E1000032E34D0082E32D06FF0010009B0BDE897
:101E2000F08F761C032E01D0082EE0D1601CCAF87A
:101E30000000DCE7A9690698641C88477F1E2AD445
:101E400020F02000412826D1A9690698641C884703
:101E50007F1E20D420F020004E281CD1A9690698AE
:101E6000641C88477F1E48F4002849F48009CAF89A
:101E7000004001D4282806D0E969069888475FEA1F
:101E8000CB7012D022E0A9690698641C88477F1E97
:101E900001D4002803DAE96906988847BCE72928B5
:101EA000F1D1641CCAF80040E9E71BF0240F07D009
:101EB00028680499031D2B600068C0E9001805E03C
:101EC0002868021D2A600068C0F800902046A5E737
:101ED0000000F07F494E46494E4954590000000029
:101EE0000446AFF300802046FEF7BFF94FF0013CF7
:101EF00050F8042B51F8043B9A4221D1A2EB0C0379
:101F0000934313EACC1317D150F8042B51F8043B38
:101F10009A4215D1A2EB0C03934313EACC130BD1D5
:101F200050F8042B51F8043B9A4209D1A2EB0C0360
:101F3000934313EACC13DBD04FF00000704700BF8F
:101F4000D01A01BAB1FA81F101F0180122FA01F0B8
:101F5000CB40C1F12001DBB2C0B2C01A2CFA01F3B0
:101F6000D11A914311EAC311E6D17047B2F12003AF
:101F70000AD5C2F1200301FA02F120FA03F300FAB4
:101F800002F041EA0301704700FA03F14FF000004C
:101F90007047000001491820ABBEFEE72600020092
:101FA00070475FEA400C08BF91F0000F4FEA8C23A6
:101FB0004FEAC12243EA51514FEA1C5018BF00F5C5
:101FC000F0404FEA300018BF41F000415FEA6C5C1E
:101FD00000F02980BCF1FF3F08BF40F0804070470F
:101FE000130C06BF12044FF0100C4FF0000C130E30
:101FF00004BF12020CF1080C130F04BF12010CF104
:10200000040C930F04BF92000CF1020CD30F04BF19
:1020100052000CF1010C11464FF00002A0F11F001C
:10202000A0EB0C00704711F0004F08BF704731F073
:1020300000413FF4D5AF0B0C06BF09044FF0100C64
:102040004FF0000C0B0E04BF09020CF1080C0B0F33
:1020500004BF09010CF1040C8B0F04BF89000CF1C3
:10206000020CCB0F04BF49000CF1010CCCF1200392
:10207000A0EB0C0022FA03F302FA0CF241EA03018E
:1020800000F10100704720F07F4C80EA030023F04C
:102090007F47ACEB070303F57C5300F0004003F1EE
:1020A000FF032DE980494FEA154B09B44FEA144369
:1020B00025EA0B4E24EA03480FF2042606EB132709
:1020C00049083E785FEA320203FB0667C7F500075E
:1020D00007FB06F64FEA54374FEAD64606F10206EA
:1020E00007FB066CCCF1005C4FEA1C472CEA074C5E
:1020F00007FB06F40CFB06F504EB15464FEA9616B3
:1021000034BF00204FF000404FEAD13706FB07FCF8
:102110004FEA1C4C0CFB0BF7D21B03FB0CF761EBDB
:1021200007010CFB0EF7B0EB074072EB17420CFBFC
:1021300008F734BFA2EB0742B2EB074261EB17414D
:102140004FEA0C444FEA910706FB07FC4FEA1C4C90
:102150000CFB0BF7B0EBC74072EB573203FB0CF7ED
:1021600034BFA2EBC742B2EBC74261EB57310CFB65
:102170000EF7B0EBC70072EB57720CFB08F734BFD9
:10218000A2EBC702B2EBC70261EB5771039F4FEAA4
:10219000816141EA921104EBCC044FEAD1374FEA56
:1021A000826206FB07FC42EA90124FEA80604FEA27
:1021B0001C4C0CFB0BF7D21B03FB0CF761EB07016C
:1021C0000CFB0EF7B0EB074072EB17420CFB08F765
:1021D00034BFA2EB0742B2EB074261EB17414FEA73
:1021E0008C554FEA910704EB9C2406FB07FC4FEA51
:1021F0001C4C0CFB0BF7B0EBC74072EB573203FBE8
:102200000CF734BFA2EBC742B2EBC74261EB5731C8
:102210000CFB0EF7B0EBC70072EB57720CFB08F724
:1022200034BFA2EBC702B2EBC70261EB577115EBEB
:102230004C254FEA816141EA92114FEA82624FEAEE
:10224000D13742EA901206FB07FC44F100044FEA42
:1022500080604FEA1C4C0CFB0BF7D21B03FB0CF706
:1022600061EB07010CFB0EF7B0EB074072EB174276
:102270000CFB08F734BFA2EB0742B2EB074261EB5D
:10228000174115EB1C154FEA813141EA92414FEAA3
:10229000823242EA90424FEA80304FEA0C7644F1B3
:1022A000000448EA03434EEA0B484FF0000EB2EB3D
:1022B000080C71EB030724BF624639464EEB0E0E45
:1022C0004FF0000B0018524149414BEB0B0BB2EBA6
:1022D000080C71EB03077BF1000B24BF6246394603
:1022E0004EEB0E0E4FF0000B0018524149414BEBE4
:1022F0000B0BB2EB080C71EB03077BF1000B24BF57
:10230000624639464EEB0E0E51EA020718BF46F000
:10231000010616EB0E7655F1000254F1000103D5CB
:10232000BDE88901BDE80088BDE88901BDE8004835
:10233000B619524141EB0101A3F1010370478080BE
:102340007F7E7D7C7B7A797877767675747372710F
:1023500071706F6E6E6D6C6C6B6A6A6968686766C7
:1023600066656464636362616160605F5F5E5E5D59
:102370005D5C5C5B5B5A5A595958585757565655CD
:1023800055555454535352525251515050504F4F2F
:102390004F4E4E4D4D4D4C4C4C4B4B4B4A4A4A497F
:1023A00049494848484747474746464645454544C2
:1023B000444444434343434242424241414100007A
:1023C00046EA0646A3F570534FEA164646EA4256D9
:1023D0004FEAD22242EA415210B54FEAD121A3F18D
:1023E000010300F017F820F0004000F1010C00F0AC
:1023F000004701EB00501146BCF5006F40EA0700B2
:1024000000D210BD02484FF0000140EA070010BDA5
:102410000000F07F002B26D4770021D01CB54FEAB6
:10242000370703B44FF010004FF010014FF00000D9
:102430000FBCBDE810400BF1010BBBF1010F08BF51
:102440005FEA170722BF12F1010211F101014FF0FB
:10245000004143F1000300F0004043EA00007047F0
:10246000F9D35708DAE746EA064613F1400F4FEA78
:1024700016461FDD13F1200FDFBF16430A46002169
:1024800020335B42C8D0C3F1200746EA064602FA71
:1024900007F74FEA164646EA0706C3F1200722FA75
:1024A00003F201FA07F721FA03F14FF0000342EAC1
:1024B0000702B1E746EA020646EA06464FEA164632
:1024C00046EA0106BCBF46EA0646360C4FF000035A
:1024D0004FF000024FF000019EE72DE9C0489346FF
:1024E00030B491E8380007C831EA400C48BF34EAFC
:1024F000430C03D5FFF7C7FDFFF78CFFF0BCBDE829
:1025000000882DE9C048934630B491E8380007C8E8
:1025100031EA400C48BF34EA430C03D5FFF7B3FD62
:10252000FFF74EFFF0BCBDE800882DE9C048934698
:1025300030B491E8380007C810F0804F08BF13F09E
:10254000804F03D100F019F8FFF764FFF0BCBDE83D
:1025500000882DE9C048934630B491E8380007C898
:1025600010F0804F08BF13F0804F03D100F005F842
:10257000FFF726FFF0BCBDE8008820F07F4780EA27
:10258000030023F07F4C07EB0C03A3F57C5300F012
:102590000040A3F1FE0392F0000F00F0B38095F02D
:1025A000000F00F077802DE901494FEA11404FEA12
:1025B000144621EA004800FB06FC24EA064708FB13
:1025C00006F607FB08F800FB07F718EB06484CEB8C
:1025D000164C4FEA124B18EB07484FEA15464CEBE6
:1025E000174022EA0B4E0BFB06FC25EA06470EFBC2
:1025F00006F607FB0EFE0BFB07F71EEB064E4CEB39
:10260000164C4FF000061EEB074E4CEB174B18EB29
:102610000B0840F1000018EB0E0B58EB000840F1DE
:1026200000008F1A4FF000013CBFC943661B14BF66
:10263000B5EB040C00213CBFC943F61B4FEA17441D
:102640004EEA8E0E27EA04454FEA1C4704FB076258
:102650002CEA074C05FB07F70CFB05F604FB0CFC0A
:1026600016EB074642EB174216EB0C4642EB1C42B8
:102670001BEB060658EB0202414146EA9E0601D5D5
:10268000BDE80189B619524141EB0101A3F10103F3
:10269000BDE801894FEA14454FEA114724EA05468F
:1026A00021EA074C05FB07F406FB07F70CFB06F1D4
:1026B00005FB0CFC11EB074144EB17444FEA1247B2
:1026C00011EB0C4144EB1C4422EA074C05FB07F2DA
:1026D00006FB07F70CFB06F605FB0CFC16EB0746A2
:1026E00042EB174216EB0C4642EB1C456A1854F1BC
:1026F000000148BF7047B619524141EB0101A3F1F7
:102700000103704795F0000F37D04FEA11424FEAAE
:10271000144721EA024624EA074C02FB07F106FBB4
:1027200007F70CFB06F402FB0CFC14EB074441EB2F
:1027300017414FEA154714EB0C4441EB1C4125EAC5
:10274000074C02FB07F506FB07F70CFB06F602FB3E
:102750000CFC16EB074645EB174516EB0C4645EB14
:102760001C42121951F1000148BF7047B61952417D
:1027700041EB0101A3F1010370474FEA14454FEA11
:10278000114724EA054621EA074C05FB07F106FB41
:1027900007F70CFB06F24FF0000605FB0CFC12EBF2
:1027A000074241EB174112EB0C4251EB1C4148BF71
:1027B0007047921841EB0101A3F101037047704784
:1027C000704710B56FF0040000F0A2FB10BD0000D0
:1027D00010B50146B1F5E16F22D201EBC1034FF410
:1027E0007A7463434FF0E02463610023A3612346BE
:1027F0001B6943F00103236100BF4FF0E023186918
:1028000000F001031BB100F48033002BF5D04FF032
:10281000E0231B6923F001034FF0E02423614FE024
:1028200000221FE0274B4FF0E02463610023A361E7
:1028300023461B6943F00103236100BF4FF0E023EF
:10284000186900F001031BB100F48033002BF5D0B0
:102850004FF0E0231B6923F001034FF0E0242361D4
:10286000531CDAB24FF4E163B1FBF3F39342D9D8CE
:102870004FF4E163B1FBF3F403FB141303EBC30365
:102880004FF47A7463434FF0E02463610023A36143
:1028900023461B6943F00103236100BF4FF0E0238F
:1028A000186900F001031BB100F48033002BF5D050
:1028B0004FF0E0231B6923F001034FF0E024236174
:1028C00010BD00004031F7001FB50121084600F09F
:1028D00013FA0121042000F01FFA0320ADF80C00C8
:1028E00048208DF80F0003A9114800F023F84FF697
:1028F000FF70ADF804000020ADF80000ADF8060050
:10290000ADF8020069464FF0804000F049FC00231A
:102910001A4603214FF0804000F0A9FB00214FF040
:10292000804000F03AFC0121880700F094FB1FBDB5
:10293000000801402DE9F041024600250026002054
:1029400000230024002791F803C00CF00F0591F834
:1029500003C00CF0100CBCF1000F03D091F802C0C2
:102960004CEA050591F800C0BCF1000F31D01468A5
:1029700000202BE04FF0010C0CFA00F3B1F800C07E
:102980000CEA03069E4220D183004FF00F0C0CFA94
:1029900003F7BC4305FA03FC4CEA040491F803C0B6
:1029A000BCF1280F06D14FF0010C0CFA00FCC2F864
:1029B00014C00AE091F803C0BCF1480F05D14FF0F4
:1029C000010C0CFA00FCC2F810C0401C0828D1D33E
:1029D0001460B1F800C0BCF1FF0F34DD5468002072
:1029E0002EE000F1080C4FF0010808FA0CF3B1F8E2
:1029F00000C00CEA03069E4221D183004FF00F0C69
:102A00000CFA03F7BC4305FA03FC4CEA040491F802
:102A100003C0BCF1280F05D100F1080C08FA0CF82E
:102A2000C2F8148091F803C0BCF1480F07D100F13F
:102A3000080C4FF0010808FA0CF8C2F81080401C8E
:102A40000828CED35460BDE8F08141617047016130
:102A50007047704710B508210348FFF7F6FF0421BF
:102A60000148FFF7F2FF10BD0010014008B5012139
:102A7000102000F051F90C20ADF8000003208DF873
:102A8000020010208DF8030069460348FFF752FF4B
:102A9000FFF7E0FF08BD00000010014070477047DD
:102AA00070B5002100230F22C47804B3154C2468AC
:102AB00004F4E064C4F5E064210AC1F10403CA40EF
:102AC000447804FA03F184781440214309010E4C40
:102AD0000678A155047804F01F050124AC40057860
:102AE0006D11AD0005F1E025C5F8004109E004785D
:102AF00004F01F050124AC40044D0678761145F81A
:102B0000264070BD0CED00E000E400E080E100E054
:102B100002490143024A1160704700000000FA05B3
:102B20000CED00E02DE9F0410646404F4048C168F9
:102B3000304601F0CAFB3E4908610A461169106837
:102B400001F0C6FA3A49C8610846006920F0004819
:102B500038480168404601F087FA14D234490869C0
:102B6000394601F0B5FA804631488169404601F0A6
:102B700017F92F4988610A469169506801F0A8FA4F
:102B80002B49086202E00020294908622849086AA6
:102B90002949096801F068FB03D2274800682449E5
:102BA00008622548006880F000482148016A4046D4
:102BB00001F05AFB05D22048006880F000401C4913
:102BC00008621B4A5169106901F08AFB8046394648
:102BD00001F054F9044616498868214601F078FA54
:102BE000134948620A46116AD06901F0D9F8804653
:102BF0000F48416A404601F0D3F805460C48006989
:102C00000B4948610C480168284601F02DFB01D2B0
:102C1000094805680021284601F026FA00D200255F
:102C2000284601F0EDF9BDE8F0810000CDCCCC3DA7
:102C300024000020000000200400002010B5064BF6
:102C4000186059609A600023034CE3602361034BD2
:102C500063610023A36110BD240000200000F04147
:102C600030B589B004460D460121022000F044F839
:102C70000121042000F050F84020ADF82000182079
:102C80008DF8230003208DF8220008A91748FFF7CC
:102C900051FE681E80B2ADF81400601E80B2ADF81F
:102CA00018000020ADF81600ADF81A0005A910486C
:102CB00000F076FA6020ADF804000120ADF80600BF
:102CC0000020ADF80C0001A9094800F00FFA082116
:102CD000074800F057FA0121054800F0ADF901213D
:102CE000034800F0B8F909B030BD00000008014009
:102CF000000400407047000029B1064AD26902432F
:102D0000044BDA6104E0034AD2698243014BDA6181
:102D1000704700000010024029B1064A9269024340
:102D2000044B9A6104E0034A92698243014B9A6121
:102D3000704700000010024030B50021002200243E
:102D400000232D4D6D6805F00C0121B1042905D03B
:102D5000082923D105E0294D056022E0274D0560B3
:102D60001FE0254D6D6805F47012234D6D6805F464
:102D70008034022505EB92421CB9214D5543056074
:102D80000BE01D4D6D6805F400351DB11C4D55431C
:102D9000056002E0194D5543056002E0174D0560DE
:102DA00000BF00BF144D6D6805F0F0010909154D15
:102DB0006B5C0568DD4045600F4D6D6805F4E061B2
:102DC000090A104D6B5C4568DD4085600A4D6D68F1
:102DD00005F46051C90A0B4D6B5C4568DD40C56068
:102DE000054D6D6805F44041890B074D6B5CC56866
:102DF000B5FBF3F5056130BD0010024000127A000A
:102E000000093D00100000202000002010B54FF008
:102E1000804000F04DF904B200214FF0804000F0F6
:102E2000BCF9204610BD704710B500F001F810BD88
:102E30000CB50020019000903348006840F48030C9
:102E40003149086000BF3048006800F4003000904D
:102E50000198401C0190009818B90198B0F5A06F36
:102E6000F1D12948006800F4003010B10120009031
:102E700001E0002000900098012843D12348006819
:102E800040F01000214908600846006820F0030067
:102E900008600846006840F0020008601A48406870
:102EA000194948600846406848600846406840F450
:102EB000806048600846406820F47C1048600846FE
:102EC000406840F4E81048600846006840F08070B0
:102ED000086000BF0C48006800F000700028F9D0BE
:102EE0000948406820F003000749486008464068E8
:102EF00040F00200486000BF0348406800F00C004A
:102F00000828F9D10CBD000000100240002002404A
:102F1000042808D14FF0E021096941F004014FF085
:102F2000E022116107E04FF0E021096921F004017E
:102F30004FF0E022116170477047000010B5134850
:102F4000006840F0010011490860084640681049D7
:102F500008400E494860084600680E4908400B4981
:102F600008600846006820F4802008600846406831
:102F700020F4FE0048604FF41F008860FFF754FF04
:102F80004FF000600449086010BD000000100240CE
:102F90000000FFF8FFFFF6FE08ED00E010B501218C
:102FA000074800F088F850B1012006490870002158
:102FB000034800F050F80121014800F049F810BD25
:102FC00000080040080000207FB505460C464FF47D
:102FD000A060FFF79DFD01210420FFF78DFEADF8F5
:102FE0000850ADF804400020ADF80600ADF80A0026
:102FF00001A9104800F0D4F801210E4800F028F88B
:10300000012211460B4800F067F80021094800F042
:1030100022F81E208DF8000001208DF8010000200C
:103020008DF8020001208DF803006846FFF738FD97
:103030007FBD00000008004021B1028842F08002FC
:10304000028004E002884FF67F731A4002807047C6
:10305000CA430282704721B1028842F00102028015
:1030600004E002884FF6FE731A4002807047F0B504
:103070000C4615461E460021002200230189028BC2
:10308000038C4FF6F877394021434FF6FC473A401E
:1030900040F201173A434FF6DD773B404FF6FF779A
:1030A00007EA06172F433B43018102830384F0BDE7
:1030B0000146888C704730B502460020002300246A
:1030C000158A05EA0103958905EA010413B10CB1DB
:1030D000012000E0002030BD1AB183890B438381B9
:1030E00002E083898B4383817047000070B5002420
:1030F00000220023058C4FF6FE7635400584028CB5
:103100008388048B4FF68F752C40B51E2C400D889C
:103110002C43751E2A400D892A434D882A43144D9D
:10312000A8420BD0134DA84208D0134DA84205D099
:10313000124DA84202D0124DA84213D14FF6F77596
:103140002A404D892A434FF6FB752A408D882A4331
:103150004FF6FF652B404FF6FF552B408D892B43D3
:10316000CD892B4383800483CD888586028470BDFE
:10317000002C014000340140004001400044014067
:10318000004801400A460021018B4FF6F7731940B1
:103190001143018370478186704781847047000026
:1031A000002202881D4B98420ED01D4B98420BD036
:1031B000B0F1804F08D01B4B984205D01A4B984273
:1031C00002D01A4B984204D14FF68F731A404B88A5
:1031D0001A43174B984207D0164B984204D04FF62B
:1031E000FF431A40CB881A4302808B8883850B8863
:1031F00003850A4B98420BD0094B984208D00E4BDE
:10320000984205D00D4B984202D00D4B984201D107
:103210000B7A03860123838270470000002C014053
:10322000003401400004004000080040000C004051
:1032300000100040001400400040014000440140E4
:103240000048014010B540F225510E4800F037F813
:10325000B8B10C4800F0EEF80B490C4A12688854DB
:103260000A48006820B901210948FFF7F4FE03E08D
:1032700000210748FFF791FF04480068401C0349FC
:10328000086010BD00380140500000200C000020F4
:103290000008004001F40072B2F5007F00D100BFC9
:1032A000CA430280704721B1828942F40052828170
:1032B00004E082894DF6FF731A408281704770B531
:1032C0000246002400230025002040F66A16B14281
:1032D00000D100BFC1F3421501F01F03012606FA19
:1032E00003F3012D02D19689334006E0022D02D16D
:1032F000168A334001E0968A33400C12012606FA02
:1033000004F41688344013B10CB1012000E0002011
:1033100070BDF0B50346002400260025002040F6CD
:103320006A17B94200D100BF1846C1F3421401F038
:103330001F06012707FA06F5012C01D10C3004E025
:10334000022C01D1103000E014301AB107682F436D
:10335000076002E00768AF430760F0BD2DE9F04762
:1033600086B005460E460024A24600BFA1460027AF
:10337000B08900B100BF2F462C8A4CF6FF70044084
:10338000F08804432C82AC894EF6F3100440B088D8
:1033900031890843718908430443AC81AC8A4FF6F4
:1033A000FF400440B0890443AC8201A8FFF7C4FC8D
:1033B0001F48874202D1DDF810A001E0DDF80CA023
:1033C000A88900F4004040B10AEBCA0000EB0A10E3
:1033D00031684900B0FBF1F807E00AEBCA0000EBE6
:1033E0000A1031688900B0FBF1F86420B8FBF0F0F6
:1033F00004012009642101FB1089A88900F4004020
:1034000040B1322000EBC900B0FBF1F000F0070042
:10341000044308E0322000EB09106421B0FBF1F016
:1034200000F00F0004432C8106B0BDE8F0870000D7
:103430000038014001468888C0F308007047704793
:1034400010B586B004464FF4A060FFF761FB012180
:103450008803FFF761FC01210420FFF75DFC4FF4B6
:103460000070ADF8140003208DF8160018208DF8B8
:10347000170005A91E48FFF75DFA4FF48060ADF80C
:10348000140004208DF8170005A91948FFF752FA17
:1034900001940020ADF80800ADF80A00ADF80C006A
:1034A000ADF810000C20ADF80E0001A91148FFF78F
:1034B00055FF20210F48FFF7EDFE012240F2255174
:1034C0000C48FFF726FF25208DF8000000208DF81E
:1034D00001008DF8020001208DF803006846FFF717
:1034E000DFFA01210348FFF7DEFE06B010BD000041
:1034F0000008014000380140490050EAC12018BFCF
:1035000004204A0D18BF40F0010040F2FF72B2EBF8
:10351000515F08BF40F00200012808BF0520704736
:1035200040F2013200204FF0E04100F082BF000085
:10353000024A0020110700F07CBF000001FDFFFFE0
:1035400010B50446D1E9000100F002F8206010BD7A
:10355000F8B504460D466A4600F050F800987E30F3
:10356000009000281FDC002213462046294600F068
:103570003FFA18D0002140F608004FF00000064640
:103580002046294600F0EEF9044640F6080006EA17
:1035900000014FF0000034F0004004BF0220FEF7AD
:1035A00032FA2046F8BD0098FF280DDB0220FEF716
:1035B0002AFA002213462046294600F08FFB8CBFD2
:1035C00004484FF0FF40F8BD20462946BDE8F840CA
:1035D00000F0C8B9000080FF10B504460A46D4E9DF
:1035E0000003194600F036F8C4E9000110BD303878
:1035F0000A2801D2012070470020704710B51446F8
:1036000000222260114A21F000439342A8BF10BD5E
:1036100053EA000208BF10BDB3F5801FA8BF22689F
:1036200007DA362200F005FF6FF0350221F0004383
:103630002260DFF81CC06FF31E510CEB23531A44B9
:1036400041F0FF5141F00051226010BD0000F07FB9
:1036500002FCFFFF2DE9F04106460C4640F2FF75E3
:10366000174635EA14502BD000221346304600F09E
:10367000BFF925D03A463046214600F0DAFE06462C
:103680000C4635EA145010D000221346304600F0A4
:10369000AFF915D10220FEF7B6F9FFF749FF0A4648
:1036A000214662F31E01BDE8F0810220FEF7ABF96E
:1036B000FFF736FF0A46214662F31E01BDE8F0819E
:1036C00030462146BDE8F08186B000BF002005905D
:1036D00000BF002481468346544A55495548FFF7A8
:1036E000ADFAFFF76EF84FF41650FFF7A9FE4FF44E
:1036F000E1514FF49670FFF767FCFFF7E5F84821BA
:103700004FF47A70FFF7ACFAFFF7B0F900204A499E
:1037100008704A49086088E000BF6420FFF758F845
:10372000FFF774FB0446204600F086FC0646444939
:1037300000F0CEFC0546434900F0A0FB8146002185
:10374000484600F091FC0CD2484600F0FDFA0746CE
:1037500000223D4B00F0C4F9054600F003F9834612
:1037600000E0CB465846FFF7DDF982461FFA8AF1A2
:103770003648FFF710FD3649C86800F0E5FA0546FF
:103780000E46584600F0E0FA07463A460B462146F8
:1037900030A08DE8600400F08BF8274800780128FD
:1037A00043D100203949254A1268885404AB05AA40
:1037B00037A13648FCF792FD02282DD12449049800
:1037C000C860059820B1012812D0022822D118E043
:1037D00000201F49C860304848614FF0000A0821A6
:1037E0002E48FFF732F904212C48FFF72EF912E09A
:1037F00008212A48FFF72BF904212848FFF725F96B
:1038000009E008212548FFF720F904212348FFF7A4
:103810001EF900E000BF00BF1C4921A000F048F8DD
:103820000020054908700549086075E7CDCC4C3D7E
:103830000000F0420000AA42080000200C00002016
:10384000000020410000A5440000F0BF000400403B
:10385000240000204E756D626572206F66207075C1
:103860006C7365733A2025642C2052504D3A202504
:103870002E32662C205461726765743D252E3266A7
:103880002C202050574D3D25640D0A00500000208B
:1038900025643B25660000000000F0410010014057
:1038A00067657420646174613A2025730D0A000015
:1038B0000FB438B505A800901248009A0499FCF797
:1038C000FBFC002000900F48FCF7CCFD054600BF34
:1038D0000D48008800F040000028F9D000240CE0DA
:1038E0000848005D0849091D088000BF0648008897
:1038F00000F040000028F9D0641CAC42F0D338BC82
:103900005DF814FB500100200038014010B500297B
:103910000AD00878002807D005487844FEF7E6FA70
:10392000002801D0002010BD0248784410BD0000DE
:10393000B20C0000AA0C000010B500290AD00878CB
:10394000002807D005487844FEF7D0FA002801D0B7
:10395000002010BD0248784410BD0000A20C0000F9
:103960009A0C000021F00042A2F16052B2F5801FD3
:1039700001F0004328BFD2F17F6C0BD95FEA001C35
:1039800043EAC20242EB507018BF704728BF20F0D4
:1039900001007047B2F5801FBCBF184670474FEA60
:1039A000410C1CF5001F02D2084600F058BC70B54F
:1039B00000F040F900000089FFF7F6BF4FF000402B
:1039C000A0F580007047000002494FF0000000F0B1
:1039D000FEBC00BF0000F87F491058BFC1F1404154
:1039E0005B1058BFC3F140438B42EFF30080704738
:1039F00051EA030C17D41CF5801F58BFBCF5801F7B
:103A000000F10680994218BF704708BF9042704786
:103A100007D711F5801F58BF13F5801F19D499429D
:103A20007047894270471CF5801F08D5BCF5801F80
:103A3000F7D58B4218BF704708BF824270474FF4DA
:103A4000001C1CEB410F38BF1CEB430F01D28B4213
:103A5000704770B500F0EEF8922449004FF0005125
:103A60004FF08053FFF7B8BF51EA030C17D41CF591
:103A7000801F58BFBCF5801F00F10680994218BF17
:103A8000704708BF9042704707D711F5801F58BF95
:103A900013F5801F19D499427047894270471CF56D
:103AA000801F08D5BCF5801FF7D58B4218BF704723
:103AB00008BF824270474FF4001C1CEB410F38BF17
:103AC0001CEB430F01D28B42704770B500F0B2F887
:103AD000922449004FF000514FF08053FFF77CBF14
:103AE000DFF848C170B51CEA111E1EBF1CEA131591
:103AF0009EEA0C0F95EA0C0F00F06F8081EA030438
:103B000023EA4C134EEAD47E21EA4C1141F4801191
:103B100043F48013AE44A1FB024CA0FB0365AEF15D
:103B20007F7E361955EB0C05A1FB034C4CF10003CD
:103B3000A0FB021C16EB0C06654153F10003094281
:103B400018BF46F0010613F4007F0BD14FEA033192
:103B50004FEA0530340341EA155140EA16506FF040
:103B600003020AE04FEAC3214FEAC520F40241EA0A
:103B7000555140EA56506FF0020202EB2E4201EB23
:103B8000025585EACE710AD05FEA440C18BF24F0D2
:103B9000004450F1000041F1000120EAD47040F2ED
:103BA000FE7C624500D270BDA84214BF4FF0804435
:103BB0004FF04044002E08BF0024BEF1806FA8BF24
:103BC000A1F1C041BDE8704080F282804FF000005A
:103BD00001F1C04101F0004170479EEA0C0F0CEA70
:103BE000131518BF95EA0C0F06D04FF0000081EABC
:103BF000030E0EF0004170BD00F01CF88900013E7C
:103C000000F007B800F009B84FEA430C5FEA5C5CCB
:103C100008D081EA030100F05BB84FEA410C5FEA8B
:103C20005C5CF6D14FF00000014970470000FF07CF
:103C30000000F87F0EF1020E2EF0030E5EF8046B0A
:103C4000364205D4012A43EB030515F5001F12D8AF
:103C5000012841EB010C1CF5001F0CD80ED14FEAD6
:103C6000D17C15F5001F0CEB4C0C0CF1020C08BFBD
:103C70004CEBD37C04E04FF0080C01E04FEAD37C1E
:103C80000CEB4C0526FA05F606F00706B6F1040C17
:103C900006D20EEB860CBDE870404CF0010C60477C
:103CA000DFE80CF0090B02024FF000414FF000007A
:103CB000A1F5002170BD19461046012851EB010401
:103CC00018BFD4F5001484BF002001F0004170BD7E
:103CD0000808A0F500114FEA3101704753EA010CC2
:103CE00017D41CF5801F58BFBCF5801F00F106805B
:103CF0008B4218BF704708BF8242704707D713F541
:103D0000801F58BF11F5801F19D48B4270479B420A
:103D100070471CF5801F08D5BCF5801FF7D5994268
:103D200018BF704708BF904270474FF4001C1CEB4F
:103D3000430F38BF1CEB410F01D2994270470FB4BB
:103D40000CBC03BCFFF7C1BE43004FEAD30C4FEAE3
:103D50003C0C43401FBF40070CF1605113F0FE4F75
:103D600070471CF0006F03D100200CF00041704739
:103D70000CF0004343EA507010B540EACC0000F06C
:103D800028FA00BF000000924FEA0001FFF7A0BF31
:103D90004FF000414FF00000A1F5002170470000F6
:103DA00090EA010F48BF81F0004100F1A082421A61
:103DB0003CBF801A89184FEAD0524FF07F4C1CEA62
:103DC000410FA2EBD15318BF9CEA026F00F03B8079
:103DD0004FF0004C4CEA00204CEA012121FA03FC90
:103DE00010EB0C0C1ED202F1FF325FEA1C2040EBFC
:103DF000C25038BF70471CF07F0F4FEA400C18BF0D
:103E0000BCF17F4F38BF7047C3F12003994008BF12
:103E100020F00100BCF17F4F38BF7047A0F1C040D7
:103E200000F01DBA4FEA3C00000A40EBC25028BF28
:103E30001CF0FF0F4FEA400CE6D018BFBCF17F4FDB
:103E400038BF7047EAE79CEA026F05D010EA5C0FC2
:103E500008BF00F00040704710B500F0BAF900BF8D
:103E600064FBBE3E401058BFC0F14040491058BFEF
:103E7000C1F140418142EFF3008070474FF47F0C65
:103E80001CEAD0121EBF1CEAD11392EA0C0F93EA6F
:103E90000C0F00F0858090EA010F48BF42F4807259
:103EA00040F4000C41F400002CF07F4120F07F40F2
:103EB00000B58142A2EB03020FF2081CACEB504E9E
:103EC000C0F100009EF800E04FEA4E0E00FB0EFC31
:103ED00038BF49004FEA2C1C02F5FA020CFB0EF326
:103EE0004FEACE1E4FEA112C4FEAC1210EEB635E62
:103EF00042EB22420EFB0CFC4FEA1C5300FB031169
:103F00004FEA112C4FEA01310EFB0CFC4FEADC4C5E
:103F100000FB0C11C14228BF09184CEB03335DF8BC
:103F200004EB10EB410143EBC250B2F57C0F38BFFC
:103F3000704729D512F0F00F1CBF00F1C04000F00F
:103F400000407047008182838485868788898B8CB6
:103F50008D8E8F919293959697999A9C9D9FA0A2F2
:103F6000A3A5A7A8AAACAEB0B2B3B5B7B9BCBEC042
:103F7000C2C5C7C9CCCED1D4D7D9DCDFE2E6E9ECE3
:103F8000F0F3F7FAFE0000004FEA400C0CF1807CE1
:103F9000BCF17E4F28BF7047B0F1C04000F05FB960
:103FA00090EA010F0CEAD11348BF42F480726245D7
:103FB00038BF634507D213F47F0F16D080EA0100A3
:103FC00000F00040704710B500F003F9097EFC3E98
:103FD00000F005B880EA010000F00040704780EA78
:103FE000010000F0004000F03AB912F47F0F04BF66
:103FF0000248704780EA010000F031B90000C07F3C
:1040000041000B0ED3F19E0208D950F400034FEA91
:10401000032323FA02F048BF4042704710B500F076
:10402000D8F800BF49922480002070476FF000420A
:1040300082EA20007047000010F0004148BF404273
:10404000B0FA80F310FA03F2C3F19D030BD051EAEA
:10405000C35101EB1220530638BF704700F1010035
:1040600008BF20F00100704750EA010C00F11380F6
:104070001CF5000F58BFBCF5000F01D488427047F3
:1040800007D710F5000F58BF11F5000F15D488425F
:104090007047894270471CF5000F04D5BCF5000F2E
:1040A000F7D5814270474FF0807C1CEB400F38BF42
:1040B0001CEB410F01D28142704710B500F089F826
:1040C000922449004FF000504FF08051FFF7CABED4
:1040D0004FF47F0C1CEAD0121EBF1CEAD11392EAE7
:1040E0000C0F93EA0C0F00F0478090EA010F48BFD5
:1040F00042F480724FF0004C4CEA00204CEA01215F
:1041000002EB0302A0FB0113A2F50002002918BF75
:1041100043F001035B0028BF4FEA330342EB224226
:104120005FEA132C4CEBC2502EBFBCEB436FB2F5D1
:104130007C0F70474FEA036CBCF1004F08BF20F0C2
:104140000100B2F57C0F38BF70470BD582F0FF023B
:1041500012F5803FC8BF704700F1C040D8BF00F0E3
:104160000040704700F5000C5FEA4C0C48BF7047F8
:10417000B0F1C04000F073B890EA010F0CEAD1131F
:1041800048BF42F48072624538BF634504D280EA7A
:10419000010000F00040704710B500F01AF800BFB1
:1041A0008900013E00F007B800F009B85FEA410C51
:1041B0005FEA1C6C08D080EA010000F050B85FEAAA
:1041C000400C5FEA1C6CF6D14FF00040A0F5800077
:1041D00070470EF1020E2EF0030E5EF8044B2442DF
:1041E00004D44FEA4102B2F17F4F11D84FEA4003A5
:1041F000B3F17F4F0CD80ED14FEAD07CB2F17F4F94
:104200000CEB4C0C0CF1020C08BF4CEBD17C04E025
:104210004FF0080C01E04FEAD17C0CEB4C0324FA80
:1042200003F404F00704B4F1040C06D20EEB840C82
:10423000BDE810404CF0010C6047DFE80CF00708C7
:1042400002024FF00040A0F5800010BD0846420079
:1042500018BFD2F1807288BF00F0004010BDFF216E
:1042600041EAD050C005704751EA000C00F11380BC
:104270001CF5000F58BFBCF5000F01D481427047F8
:1042800007D711F5000F58BF10F5000F15D4814264
:104290007047894270471CF5000F04D5BCF5000F2C
:1042A000F7D5884270474FF0807C1CEB410F38BF38
:1042B0001CEB400F01D28842704780EA010081EA7E
:1042C000000180EA0100FFF7F8BE80F0004090EAAC
:1042D000010F7FF56CAD81F0004100F008B80000DF
:1042E00090EA010F48BF81F000413FF560AD421AEE
:1042F00004D882F00042A0EB020011444FEAD052F1
:104300004FF07F4C1CEA410FA2EBD15318BF9CEA3F
:10431000026F4AD04FF0004C4CEA00204CEA0121D9
:1043200021FA03FCB0EB0C0C0FD412F0FE0F36D0C8
:104330005FEA4C001DD5001240EBC25038BF7047F9
:104340001CF03F0F18BF70470BE0A2F101025FEABB
:104350001C2040EBC25038BF70471CF07F0F18BFC5
:104360007047C3F12003994014BF401E20F00100A4
:10437000704780084FEA122308BF7047B0FA80FCEC
:10438000A2EB0C02CCF1280C60FA0CF093EA122F8D
:1043900004BF00EBC25070474FEAC3707047130A66
:1043A0005FEADC1008BF7047F6E79CEA026F04D0B2
:1043B00010EA5C0F08BF0020704710B5FFF709FF37
:1043C00040DFF63E81F000407047FCF73BBF0CF049
:1043D0000F03092B08BF082000F05F800A2B0BD0C9
:1043E000082B18BF704708BF1CF0400F0AD04FF0D1
:1043F00000004FF0000170471CF0400F18BF4FF055
:10440000004070471CF0100F08D020F0704300F0FF
:104410007F4242EAD3014FEA4370704700F06040A8
:1044200021F07F4242EA000201F07F4040EA7270D0
:1044300070474FF0FF0C4CF4E06C1CEA11531CBFAA
:104440009CEA030C9445C2BFDA4201EB025170476B
:10445000002B0DD0BCF1000F0FD0002A01F000415D
:10446000A4BF41F0E04141F07F614FF00000704790
:1044700001F000414FF00000704750EA01334FF067
:104480009B0C18BF4CF0806C7FF49EAA7047FCF721
:10449000C9BBFDF7FFBAFDF789BC1CF4801F11D022
:1044A0001CF4E02F03D06FEACC31490070474FF085
:1044B0004050EFF3008222F0704242EA000282F3A1
:1044C000008870474FF000007047000000000000B7
:1044D000000000003031323334353637383941424C
:1044E0004344454640305800303132333435363756
:1044F0003839616263646566403078000400000802
:104500000000000000000002000100001000000098
:1045100002400000000000A0000000000540000074
:10452000000000C8000000000C4000000000409C9B
:1045300000000000194000000020BCBE0000000088
:1045400034400000BFC91B8E00000004B5400000CD
:10455000504BCFD06607E2CF010000006C41000055
:104560003E8251AADFEEA73401000000D9420000CC
:10457000DCB5A0E23A301F97FFFFFFFFB445000013
:10458000FD25A0C8E9A3C14FFFFFFFFFFF3F0000CB
:104590000000008000000000FF3F000000000080DD
:1045A00000000000F8460008000000202400000081
:1045B0006C0100081C470008240000208C08000043
:1045C00088010008000000000000F07F1C000000CF
:1045D00043000000F8FFFFFF0C0000000E00000089
:1045E0000F0000002E00000010010000430000003A
:1045F000F8FFFFFF00404040404040404040414104
:1046000041414140404040404040404040404040A7
:104610004040404040050202020202020202020241
:10462000020202020220202020202020202020023E
:1046300002020202020290909090909010101010CE
:10464000101010101010101010101010101010106A
:1046500002020202020288888888888808080808FE
:1046600008080808080808080808080808080808CA
:1046700002020202400000000000000000000000F2
:10468000000000000000000000000000000000002A
:10469000000000000000000000000000000000001A
:1046A000000000000000000000000000000000000A
:1046B00000000000000000000000000000000000FA
:1046C00000000000000000000000000000000000EA
:1046D00000000000000000000000000000000000DA
:1046E00000000000000000000000000000000000CA
:1046F00000000000000000000000A04100C079445C
:10470000000000000000000000000000010203049F
:0C47100001020304060708090204060861
:040000050800027974
:00000001FF
